{
	"data": {
		"bytecode": {
			"linkReferences": {},
			"object": "6080604052348015600e575f5ffd5b5061055c8061001c5f395ff3fe608060405234801561000f575f5ffd5b5060043610610029575f3560e01c8063595142331461002d575b5f5ffd5b6100476004803603810190610042919061027a565b61005d565b604051610054919061036f565b60405180910390f35b60608260ff168260ff16106100a7576040517f08c379a000000000000000000000000000000000000000000000000000000000815260040161009e906103e9565b60405180910390fd5b5f8360ff1667ffffffffffffffff8111156100c5576100c4610407565b5b6040519080825280602002602001820160405280156100f35781602001602082028036833780820191505090505b5090505f5f90505b8460ff168160ff16101561014d576001816101169190610461565b828260ff168151811061012c5761012b610495565b5b602002602001019060ff16908160ff168152505080806001019150506100fb565b505f6001825161015d91906104cb565b67ffffffffffffffff81111561017657610175610407565b5b6040519080825280602002602001820160405280156101a45781602001602082028036833780820191505090505b5090505f5f90505f5f90505b83518160ff161015610233578560ff168160ff161461022057838160ff16815181106101df576101de610495565b5b6020026020010151838360ff16815181106101fd576101fc610495565b5b602002602001019060ff16908160ff1681525050818061021c906104fe565b9250505b808061022b906104fe565b9150506101b0565b5081935050505092915050565b5f5ffd5b5f60ff82169050919050565b61025981610244565b8114610263575f5ffd5b50565b5f8135905061027481610250565b92915050565b5f5f604083850312156102905761028f610240565b5b5f61029d85828601610266565b92505060206102ae85828601610266565b9150509250929050565b5f81519050919050565b5f82825260208201905092915050565b5f819050602082019050919050565b6102ea81610244565b82525050565b5f6102fb83836102e1565b60208301905092915050565b5f602082019050919050565b5f61031d826102b8565b61032781856102c2565b9350610332836102d2565b805f5b8381101561036257815161034988826102f0565b975061035483610307565b925050600181019050610335565b5085935050505092915050565b5f6020820190508181035f8301526103878184610313565b905092915050565b5f82825260208201905092915050565b7f496e646578206973206f7574206f6620626f756e64732e0000000000000000005f82015250565b5f6103d360178361038f565b91506103de8261039f565b602082019050919050565b5f6020820190508181035f830152610400816103c7565b9050919050565b7f4e487b71000000000000000000000000000000000000000000000000000000005f52604160045260245ffd5b7f4e487b71000000000000000000000000000000000000000000000000000000005f52601160045260245ffd5b5f61046b82610244565b915061047683610244565b9250828201905060ff81111561048f5761048e610434565b5b92915050565b7f4e487b71000000000000000000000000000000000000000000000000000000005f52603260045260245ffd5b5f819050919050565b5f6104d5826104c2565b91506104e0836104c2565b92508282039050818111156104f8576104f7610434565b5b92915050565b5f61050882610244565b915060ff820361051b5761051a610434565b5b60018201905091905056fea2646970667358221220e7f89a2c39f1bd9787b65bc465569659ed07c118b7d67d2bf32941c801b9b6f064736f6c634300081e0033",
			"opcodes": "PUSH1 0x80 PUSH1 0x40 MSTORE CALLVALUE DUP1 ISZERO PUSH1 0xE JUMPI PUSH0 PUSH0 REVERT JUMPDEST POP PUSH2 0x55C DUP1 PUSH2 0x1C PUSH0 CODECOPY PUSH0 RETURN INVALID PUSH1 0x80 PUSH1 0x40 MSTORE CALLVALUE DUP1 ISZERO PUSH2 0xF JUMPI PUSH0 PUSH0 REVERT JUMPDEST POP PUSH1 0x4 CALLDATASIZE LT PUSH2 0x29 JUMPI PUSH0 CALLDATALOAD PUSH1 0xE0 SHR DUP1 PUSH4 0x59514233 EQ PUSH2 0x2D JUMPI JUMPDEST PUSH0 PUSH0 REVERT JUMPDEST PUSH2 0x47 PUSH1 0x4 DUP1 CALLDATASIZE SUB DUP2 ADD SWAP1 PUSH2 0x42 SWAP2 SWAP1 PUSH2 0x27A JUMP JUMPDEST PUSH2 0x5D JUMP JUMPDEST PUSH1 0x40 MLOAD PUSH2 0x54 SWAP2 SWAP1 PUSH2 0x36F JUMP JUMPDEST PUSH1 0x40 MLOAD DUP1 SWAP2 SUB SWAP1 RETURN JUMPDEST PUSH1 0x60 DUP3 PUSH1 0xFF AND DUP3 PUSH1 0xFF AND LT PUSH2 0xA7 JUMPI PUSH1 0x40 MLOAD PUSH32 0x8C379A000000000000000000000000000000000000000000000000000000000 DUP2 MSTORE PUSH1 0x4 ADD PUSH2 0x9E SWAP1 PUSH2 0x3E9 JUMP JUMPDEST PUSH1 0x40 MLOAD DUP1 SWAP2 SUB SWAP1 REVERT JUMPDEST PUSH0 DUP4 PUSH1 0xFF AND PUSH8 0xFFFFFFFFFFFFFFFF DUP2 GT ISZERO PUSH2 0xC5 JUMPI PUSH2 0xC4 PUSH2 0x407 JUMP JUMPDEST JUMPDEST PUSH1 0x40 MLOAD SWAP1 DUP1 DUP3 MSTORE DUP1 PUSH1 0x20 MUL PUSH1 0x20 ADD DUP3 ADD PUSH1 0x40 MSTORE DUP1 ISZERO PUSH2 0xF3 JUMPI DUP2 PUSH1 0x20 ADD PUSH1 0x20 DUP3 MUL DUP1 CALLDATASIZE DUP4 CALLDATACOPY DUP1 DUP3 ADD SWAP2 POP POP SWAP1 POP JUMPDEST POP SWAP1 POP PUSH0 PUSH0 SWAP1 POP JUMPDEST DUP5 PUSH1 0xFF AND DUP2 PUSH1 0xFF AND LT ISZERO PUSH2 0x14D JUMPI PUSH1 0x1 DUP2 PUSH2 0x116 SWAP2 SWAP1 PUSH2 0x461 JUMP JUMPDEST DUP3 DUP3 PUSH1 0xFF AND DUP2 MLOAD DUP2 LT PUSH2 0x12C JUMPI PUSH2 0x12B PUSH2 0x495 JUMP JUMPDEST JUMPDEST PUSH1 0x20 MUL PUSH1 0x20 ADD ADD SWAP1 PUSH1 0xFF AND SWAP1 DUP2 PUSH1 0xFF AND DUP2 MSTORE POP POP DUP1 DUP1 PUSH1 0x1 ADD SWAP2 POP POP PUSH2 0xFB JUMP JUMPDEST POP PUSH0 PUSH1 0x1 DUP3 MLOAD PUSH2 0x15D SWAP2 SWAP1 PUSH2 0x4CB JUMP JUMPDEST PUSH8 0xFFFFFFFFFFFFFFFF DUP2 GT ISZERO PUSH2 0x176 JUMPI PUSH2 0x175 PUSH2 0x407 JUMP JUMPDEST JUMPDEST PUSH1 0x40 MLOAD SWAP1 DUP1 DUP3 MSTORE DUP1 PUSH1 0x20 MUL PUSH1 0x20 ADD DUP3 ADD PUSH1 0x40 MSTORE DUP1 ISZERO PUSH2 0x1A4 JUMPI DUP2 PUSH1 0x20 ADD PUSH1 0x20 DUP3 MUL DUP1 CALLDATASIZE DUP4 CALLDATACOPY DUP1 DUP3 ADD SWAP2 POP POP SWAP1 POP JUMPDEST POP SWAP1 POP PUSH0 PUSH0 SWAP1 POP PUSH0 PUSH0 SWAP1 POP JUMPDEST DUP4 MLOAD DUP2 PUSH1 0xFF AND LT ISZERO PUSH2 0x233 JUMPI DUP6 PUSH1 0xFF AND DUP2 PUSH1 0xFF AND EQ PUSH2 0x220 JUMPI DUP4 DUP2 PUSH1 0xFF AND DUP2 MLOAD DUP2 LT PUSH2 0x1DF JUMPI PUSH2 0x1DE PUSH2 0x495 JUMP JUMPDEST JUMPDEST PUSH1 0x20 MUL PUSH1 0x20 ADD ADD MLOAD DUP4 DUP4 PUSH1 0xFF AND DUP2 MLOAD DUP2 LT PUSH2 0x1FD JUMPI PUSH2 0x1FC PUSH2 0x495 JUMP JUMPDEST JUMPDEST PUSH1 0x20 MUL PUSH1 0x20 ADD ADD SWAP1 PUSH1 0xFF AND SWAP1 DUP2 PUSH1 0xFF AND DUP2 MSTORE POP POP DUP2 DUP1 PUSH2 0x21C SWAP1 PUSH2 0x4FE JUMP JUMPDEST SWAP3 POP POP JUMPDEST DUP1 DUP1 PUSH2 0x22B SWAP1 PUSH2 0x4FE JUMP JUMPDEST SWAP2 POP POP PUSH2 0x1B0 JUMP JUMPDEST POP DUP2 SWAP4 POP POP POP POP SWAP3 SWAP2 POP POP JUMP JUMPDEST PUSH0 PUSH0 REVERT JUMPDEST PUSH0 PUSH1 0xFF DUP3 AND SWAP1 POP SWAP2 SWAP1 POP JUMP JUMPDEST PUSH2 0x259 DUP2 PUSH2 0x244 JUMP JUMPDEST DUP2 EQ PUSH2 0x263 JUMPI PUSH0 PUSH0 REVERT JUMPDEST POP JUMP JUMPDEST PUSH0 DUP2 CALLDATALOAD SWAP1 POP PUSH2 0x274 DUP2 PUSH2 0x250 JUMP JUMPDEST SWAP3 SWAP2 POP POP JUMP JUMPDEST PUSH0 PUSH0 PUSH1 0x40 DUP4 DUP6 SUB SLT ISZERO PUSH2 0x290 JUMPI PUSH2 0x28F PUSH2 0x240 JUMP JUMPDEST JUMPDEST PUSH0 PUSH2 0x29D DUP6 DUP3 DUP7 ADD PUSH2 0x266 JUMP JUMPDEST SWAP3 POP POP PUSH1 0x20 PUSH2 0x2AE DUP6 DUP3 DUP7 ADD PUSH2 0x266 JUMP JUMPDEST SWAP2 POP POP SWAP3 POP SWAP3 SWAP1 POP JUMP JUMPDEST PUSH0 DUP2 MLOAD SWAP1 POP SWAP2 SWAP1 POP JUMP JUMPDEST PUSH0 DUP3 DUP3 MSTORE PUSH1 0x20 DUP3 ADD SWAP1 POP SWAP3 SWAP2 POP POP JUMP JUMPDEST PUSH0 DUP2 SWAP1 POP PUSH1 0x20 DUP3 ADD SWAP1 POP SWAP2 SWAP1 POP JUMP JUMPDEST PUSH2 0x2EA DUP2 PUSH2 0x244 JUMP JUMPDEST DUP3 MSTORE POP POP JUMP JUMPDEST PUSH0 PUSH2 0x2FB DUP4 DUP4 PUSH2 0x2E1 JUMP JUMPDEST PUSH1 0x20 DUP4 ADD SWAP1 POP SWAP3 SWAP2 POP POP JUMP JUMPDEST PUSH0 PUSH1 0x20 DUP3 ADD SWAP1 POP SWAP2 SWAP1 POP JUMP JUMPDEST PUSH0 PUSH2 0x31D DUP3 PUSH2 0x2B8 JUMP JUMPDEST PUSH2 0x327 DUP2 DUP6 PUSH2 0x2C2 JUMP JUMPDEST SWAP4 POP PUSH2 0x332 DUP4 PUSH2 0x2D2 JUMP JUMPDEST DUP1 PUSH0 JUMPDEST DUP4 DUP2 LT ISZERO PUSH2 0x362 JUMPI DUP2 MLOAD PUSH2 0x349 DUP9 DUP3 PUSH2 0x2F0 JUMP JUMPDEST SWAP8 POP PUSH2 0x354 DUP4 PUSH2 0x307 JUMP JUMPDEST SWAP3 POP POP PUSH1 0x1 DUP2 ADD SWAP1 POP PUSH2 0x335 JUMP JUMPDEST POP DUP6 SWAP4 POP POP POP POP SWAP3 SWAP2 POP POP JUMP JUMPDEST PUSH0 PUSH1 0x20 DUP3 ADD SWAP1 POP DUP2 DUP2 SUB PUSH0 DUP4 ADD MSTORE PUSH2 0x387 DUP2 DUP5 PUSH2 0x313 JUMP JUMPDEST SWAP1 POP SWAP3 SWAP2 POP POP JUMP JUMPDEST PUSH0 DUP3 DUP3 MSTORE PUSH1 0x20 DUP3 ADD SWAP1 POP SWAP3 SWAP2 POP POP JUMP JUMPDEST PUSH32 0x496E646578206973206F7574206F6620626F756E64732E000000000000000000 PUSH0 DUP3 ADD MSTORE POP JUMP JUMPDEST PUSH0 PUSH2 0x3D3 PUSH1 0x17 DUP4 PUSH2 0x38F JUMP JUMPDEST SWAP2 POP PUSH2 0x3DE DUP3 PUSH2 0x39F JUMP JUMPDEST PUSH1 0x20 DUP3 ADD SWAP1 POP SWAP2 SWAP1 POP JUMP JUMPDEST PUSH0 PUSH1 0x20 DUP3 ADD SWAP1 POP DUP2 DUP2 SUB PUSH0 DUP4 ADD MSTORE PUSH2 0x400 DUP2 PUSH2 0x3C7 JUMP JUMPDEST SWAP1 POP SWAP2 SWAP1 POP JUMP JUMPDEST PUSH32 0x4E487B7100000000000000000000000000000000000000000000000000000000 PUSH0 MSTORE PUSH1 0x41 PUSH1 0x4 MSTORE PUSH1 0x24 PUSH0 REVERT JUMPDEST PUSH32 0x4E487B7100000000000000000000000000000000000000000000000000000000 PUSH0 MSTORE PUSH1 0x11 PUSH1 0x4 MSTORE PUSH1 0x24 PUSH0 REVERT JUMPDEST PUSH0 PUSH2 0x46B DUP3 PUSH2 0x244 JUMP JUMPDEST SWAP2 POP PUSH2 0x476 DUP4 PUSH2 0x244 JUMP JUMPDEST SWAP3 POP DUP3 DUP3 ADD SWAP1 POP PUSH1 0xFF DUP2 GT ISZERO PUSH2 0x48F JUMPI PUSH2 0x48E PUSH2 0x434 JUMP JUMPDEST JUMPDEST SWAP3 SWAP2 POP POP JUMP JUMPDEST PUSH32 0x4E487B7100000000000000000000000000000000000000000000000000000000 PUSH0 MSTORE PUSH1 0x32 PUSH1 0x4 MSTORE PUSH1 0x24 PUSH0 REVERT JUMPDEST PUSH0 DUP2 SWAP1 POP SWAP2 SWAP1 POP JUMP JUMPDEST PUSH0 PUSH2 0x4D5 DUP3 PUSH2 0x4C2 JUMP JUMPDEST SWAP2 POP PUSH2 0x4E0 DUP4 PUSH2 0x4C2 JUMP JUMPDEST SWAP3 POP DUP3 DUP3 SUB SWAP1 POP DUP2 DUP2 GT ISZERO PUSH2 0x4F8 JUMPI PUSH2 0x4F7 PUSH2 0x434 JUMP JUMPDEST JUMPDEST SWAP3 SWAP2 POP POP JUMP JUMPDEST PUSH0 PUSH2 0x508 DUP3 PUSH2 0x244 JUMP JUMPDEST SWAP2 POP PUSH1 0xFF DUP3 SUB PUSH2 0x51B JUMPI PUSH2 0x51A PUSH2 0x434 JUMP JUMPDEST JUMPDEST PUSH1 0x1 DUP3 ADD SWAP1 POP SWAP2 SWAP1 POP JUMP INVALID LOG2 PUSH5 0x6970667358 0x22 SLT KECCAK256 SWAPN 0xF8 SWAP11 0x2C CODECOPY CALL 0xBD SWAP8 DUP8 0xB6 JUMPDEST 0xC4 PUSH6 0x569659ED07C1 XOR 0xB7 0xD6 PUSH30 0x2BF32941C801B9B6F064736F6C634300081E003300000000000000000000 "
		},
		"gasEstimates": {
			"creation": {
				"codeDepositCost": "274400",
				"executionCost": "310",
				"totalCost": "274710"
			},
			"external": {
				"removeArr(uint8,uint8)": "infinite"
			}
		},
		"methodIdentifiers": {
			"removeArr(uint8,uint8)": "59514233"
		}
	},
	"abi": [
		{
			"inputs": [
				{
					"internalType": "uint8",
					"name": "arraySize",
					"type": "uint8"
				},
				{
					"internalType": "uint8",
					"name": "targetIndex",
					"type": "uint8"
				}
			],
			"name": "removeArr",
			"outputs": [
				{
					"internalType": "uint8[]",
					"name": "result",
					"type": "uint8[]"
				}
			],
			"stateMutability": "pure",
			"type": "function"
		}
	]
}